{
  "contractName": "Lottery",
  "abi": [
    {
      "constant": true,
      "inputs": [
        {
          "name": "",
          "type": "uint256"
        }
      ],
      "name": "CoinUsed",
      "outputs": [
        {
          "name": "",
          "type": "uint256"
        }
      ],
      "payable": false,
      "stateMutability": "view",
      "type": "function"
    },
    {
      "constant": true,
      "inputs": [
        {
          "name": "",
          "type": "uint256"
        }
      ],
      "name": "playerAccounts",
      "outputs": [
        {
          "name": "",
          "type": "address"
        }
      ],
      "payable": false,
      "stateMutability": "view",
      "type": "function"
    },
    {
      "constant": true,
      "inputs": [
        {
          "name": "",
          "type": "uint256"
        }
      ],
      "name": "GuessMade",
      "outputs": [
        {
          "name": "",
          "type": "bytes32"
        }
      ],
      "payable": false,
      "stateMutability": "view",
      "type": "function"
    },
    {
      "inputs": [],
      "payable": true,
      "stateMutability": "payable",
      "type": "constructor"
    },
    {
      "constant": false,
      "inputs": [],
      "name": "enter",
      "outputs": [],
      "payable": true,
      "stateMutability": "payable",
      "type": "function"
    },
    {
      "constant": false,
      "inputs": [
        {
          "name": "_address",
          "type": "address"
        },
        {
          "name": "_guess",
          "type": "uint256"
        }
      ],
      "name": "makeGuess",
      "outputs": [],
      "payable": false,
      "stateMutability": "nonpayable",
      "type": "function"
    },
    {
      "constant": false,
      "inputs": [],
      "name": "winneraddress",
      "outputs": [
        {
          "name": "",
          "type": "address"
        }
      ],
      "payable": false,
      "stateMutability": "nonpayable",
      "type": "function"
    },
    {
      "constant": false,
      "inputs": [],
      "name": "closeGame",
      "outputs": [],
      "payable": true,
      "stateMutability": "payable",
      "type": "function"
    },
    {
      "constant": false,
      "inputs": [],
      "name": "getPrice",
      "outputs": [],
      "payable": true,
      "stateMutability": "payable",
      "type": "function"
    }
  ],
  "bytecode": "0x6060604052600080556001341015801561001c5750620f42403411155b151561002757600080fd5b33600160006101000a81548173ffffffffffffffffffffffffffffffffffffffff021916908373ffffffffffffffffffffffffffffffffffffffff1602179055503460405180828152602001915050604051809103902060068160001916905550610910806100976000396000f30060606040526004361061008e576000357c0100000000000000000000000000000000000000000000000000000000900463ffffffff16806314e295ce14610093578063786b844b146100ca57806386df25cf146100d457806398d5fdca146101165780639d214bcf14610120578063b6a3698014610183578063e97dcb62146101c2578063f7e144cb146101cc575b600080fd5b341561009e57600080fd5b6100b46004808035906020019091905050610221565b6040518082815260200191505060405180910390f35b6100d2610245565b005b34156100df57600080fd5b610114600480803573ffffffffffffffffffffffffffffffffffffffff169060200190919080359060200190919050506102bd565b005b61011e610439565b005b341561012b57600080fd5b6101416004808035906020019091905050610582565b604051808273ffffffffffffffffffffffffffffffffffffffff1673ffffffffffffffffffffffffffffffffffffffff16815260200191505060405180910390f35b341561018e57600080fd5b6101a460048080359060200190919050506105c1565b60405180826000191660001916815260200191505060405180910390f35b6101ca6105e5565b005b34156101d757600080fd5b6101df6106ea565b604051808273ffffffffffffffffffffffffffffffffffffffff1673ffffffffffffffffffffffffffffffffffffffff16815260200191505060405180910390f35b60058181548110151561023057fe5b90600052602060002090016000915090505481565b60013414151561025457600080fd5b600160009054906101000a900473ffffffffffffffffffffffffffffffffffffffff1673ffffffffffffffffffffffffffffffffffffffff163373ffffffffffffffffffffffffffffffffffffffff1614156102bb57600160008082825401925050819055505b565b600080600054141561042f57600260008473ffffffffffffffffffffffffffffffffffffffff1673ffffffffffffffffffffffffffffffffffffffff168152602001908152602001600020905060008160010154111561042557816040518082815260200191505060405180910390208160000181600019169055506003805480600101828161034d9190610816565b9160005260206000209001600085909190916101000a81548173ffffffffffffffffffffffffffffffffffffffff021916908373ffffffffffffffffffffffffffffffffffffffff16021790555050600480548060010182816103b09190610842565b9160005260206000209001600084604051808281526020019150506040518091039020909190915090600019169055506001816001016000828254039250508190555060058054806001018281610407919061086e565b9160005260206000209001600083600101549091909150555061042a565b600080fd5b610434565b600080fd5b505050565b60013414151561044857600080fd5b600760009054906101000a900473ffffffffffffffffffffffffffffffffffffffff1673ffffffffffffffffffffffffffffffffffffffff163373ffffffffffffffffffffffffffffffffffffffff161415156104a457600080fd5b3373ffffffffffffffffffffffffffffffffffffffff166108fc60023073ffffffffffffffffffffffffffffffffffffffff16318115156104e157fe5b049081150290604051600060405180830381858888f19350505050151561050757600080fd5b600160009054906101000a900473ffffffffffffffffffffffffffffffffffffffff1673ffffffffffffffffffffffffffffffffffffffff166108fc3073ffffffffffffffffffffffffffffffffffffffff16319081150290604051600060405180830381858888f19350505050151561058057600080fd5b565b60038181548110151561059157fe5b90600052602060002090016000915054906101000a900473ffffffffffffffffffffffffffffffffffffffff1681565b6004818154811015156105d057fe5b90600052602060002090016000915090505481565b60008060005414156106a657670de0b6b3a7640000341015151561060857600080fd5b600260003373ffffffffffffffffffffffffffffffffffffffff1673ffffffffffffffffffffffffffffffffffffffff1681526020019081526020016000209050670de0b6b3a76400003481151561065c57fe5b04816001018190555060058054806001018281610679919061086e565b91600052602060002090016000670de0b6b3a76400003481151561069957fe5b04909190915055506106e7565b3373ffffffffffffffffffffffffffffffffffffffff166108fc349081150290604051600060405180830381858888f1935050505015156106e657600080fd5b5b50565b600080600160009054906101000a900473ffffffffffffffffffffffffffffffffffffffff1673ffffffffffffffffffffffffffffffffffffffff163373ffffffffffffffffffffffffffffffffffffffff16141561080c576000905060048054905081111515610807576006546000191660048281548110151561076b57fe5b9060005260206000209001546000191614156108025760038181548110151561079057fe5b906000526020600020900160009054906101000a900473ffffffffffffffffffffffffffffffffffffffff16600760006101000a81548173ffffffffffffffffffffffffffffffffffffffff021916908373ffffffffffffffffffffffffffffffffffffffff16021790559150610812565b600080fd5b610811565b600080fd5b5b5090565b81548183558181151161083d5781836000526020600020918201910161083c919061089a565b5b505050565b8154818355818115116108695781836000526020600020918201910161086891906108bf565b5b505050565b81548183558181151161089557818360005260206000209182019101610894919061089a565b5b505050565b6108bc91905b808211156108b85760008160009055506001016108a0565b5090565b90565b6108e191905b808211156108dd5760008160009055506001016108c5565b5090565b905600a165627a7a72305820eaccceed0c7f638cc749f72896c520602f4f5d755a7bbb6029825db99b984f890029",
  "source": "pragma solidity ^0.4.19;\r\n\r\ncontract Lottery {\r\n\r\n   uint flag = 0;\r\n   address private manager;\r\n   mapping(address => player) players;\r\n   address[] public playerAccounts;\r\n   bytes32[] public GuessMade;\r\n   uint[] public CoinUsed;\r\n   bytes32 private number;\r\n   address winner;\r\n\r\n\r\n// constructor, the lottery number is generated from contract creators transaction value\r\n\r\n   function Lottery() public payable {\r\n       require(msg.value >= 1 wei && msg.value <= 1000000 wei);\r\n       manager = msg.sender;\r\n       number = keccak256(msg.value);\r\n\r\n   }\r\n   struct player {\r\n       bytes32 guess;\r\n       uint coin;\r\n   }\r\n\r\n   // entering the lottery requires value grater than 1 ether\r\n\r\n     function enter() public payable {\r\n       if (flag == 0) {\r\n     require(msg.value >= 1 ether);\r\n     var tokenHolder = players[msg.sender];\r\n    tokenHolder.coin = (uint(msg.value/1 ether));\r\n    CoinUsed.push(uint(msg.value/1 ether));\r\n\r\n   }\r\n       else {\r\n           msg.sender.transfer(msg.value);\r\n       }\r\n   }\r\n\r\n// making guess in lottery, require address and guess number\r\n\r\n   function makeGuess (address _address, uint _guess ) public {\r\n       if (flag == 0) {\r\n   var entrant = players[_address];\r\n   if (entrant.coin > 0) {\r\n   entrant.guess = keccak256(_guess);\r\n   playerAccounts.push(_address);\r\n   GuessMade.push(keccak256(_guess));\r\n   entrant.coin -= 1;\r\n   CoinUsed.push(entrant.coin);\r\n   }\r\n   else {\r\n       revert();\r\n   }\r\n   }\r\n     else {\r\n         revert();\r\n     }\r\n   }\r\n\r\n   // winner address, associated with the matching guess number\r\n\r\n\r\n      function winneraddress () public returns(address) {\r\n          if (msg.sender == manager) {\r\n              for (uint i = 0; i <= GuessMade.length; i++) {\r\n                  if (GuessMade[i] == number){\r\n                      return winner = playerAccounts[i];\r\n\r\n                  }\r\n                  else {\r\n                      revert();\r\n                  }\r\n              }\r\n\r\n\r\n          }\r\n          else {\r\n              revert();\r\n          }\r\n\r\n      }\r\n\r\n\r\n\r\n    // closegame called by manager\r\n       function closeGame ()  public payable {\r\n        require(msg.value == 1 wei);\r\n       if (msg.sender == manager) {\r\n           flag += 1;\r\n       }\r\n\r\n       }\r\n\r\n\r\n    // winner getting half of the fund in the contract\r\n\r\n    function  getPrice () public payable {\r\n        require(msg.value == 1 wei);\r\n        require(msg.sender == winner);\r\n        msg.sender.transfer((this.balance)/2);\r\n        manager.transfer(this.balance);\r\n\r\n\r\n\r\n    }\r\n\r\n\r\n\r\n\r\n}\r\n",
  "sourcePath": "C:\\Users\\sourabh\\randomness\\lottery\\contracts\\lotterycontract.sol",
  "compiler": {
    "name": "solc",
    "version": "0.4.19+commit.c4cbbb05.Emscripten.clang"
  },
  "schemaVersion": "2.0.0",
  "updatedAt": "2018-04-01T23:47:59.447Z"
}